:02000002D0002C
:1040000000400D00185D0D00000006000C000501C9
:084010000401FD08000000009E
:044018009C5A0D00A1
:10401C0009480A49884208B505D0094A824202D0AB
:10402C00121A01F06EFC0748074A0021121A01F01F
:10403C0076FC014808BD00BF1CE50320845C0D0024
:10404C0088E5032088E50320EDE7032070B5074ED3
:10405C00074C01F05FFBA41BA4080025A54200D16E
:10406C0070BD56F8043B98470135F7E75C5C0D00D2
:10407C00805C0D0000F024B808B500F045F8BDE8F0
:10408C00084001F0FFBA00F06BBB00F069BB00F018
:10409C006FBB0078B0FA80F04009704701230370C1
:1040AC0070470EB403B503AB012153F8042B0193F5
:1040BC0001F06BF802B05DF804EB03B07047000040
:1040CC0008B5054800F08BF801F004FABDE808408B
:1040DC004FF4165101F0F2B98CE5032038B50468A1
:1040EC0005467CB16368013B63605BB9236820467D
:1040FC009B689847A368013BA3601BB923682046C3
:10410C00DB689847284638BD30B52348234D244CEE
:10411C0089B000F021F9BDEEC00A1F4885ED000AF8
:10412C0000F048F9BDEEC00A84ED000A01F0D2F9A6
:10413C0023682A681B49FFF7B4FF29681A4D0A2225
:10414C0004A801F0C0F82B78049A18498DF80030B7
:10415C0002A83C2300F0A4FC03A8FFF7BFFF04A8AF
:10416C0001F054F821680A2204A801F0ACF82B786D
:10417C00049A0F498DF8003002A83C2300F090FC03
:10418C0003A8FFF7ABFF04A801F040F84FF4FA6066
:10419C0000F01EFB09B030BD8CE50320A4E5032024
:1041AC00A0E50320B05A0D0088E50320C25A0D008B
:1041BC00C75A0D00044B054801221A70052106232D
:1041CC000B2200F005B800BF88E503208CE5032026
:1041DC0010B5037201238171C271037410BD10B547
:1041EC0004460021807901F005FBA079012101F042
:1041FC0012FB0023E36010BD2DE9F843044600F0E8
:10420C00F3F8E368834284BF0023E360237C23B983
:10421C00E368C01AB0F5FA6F67D30025257400F077
:10422C00E3F80121E0602560A079257101F0F3FA33
:10423C00FA2000F0CDFAA079012101F0DBFA294631
:10424C00A07901F0E8FA142000F0C2FA00F01AFE8E
:10425C000121A07901F0DFFA282000F0BDF8A07947
:10426C00294601F0C7FA2E4601274FF00008A07925
:10427C0001F0EAFAB8425FFA88F908D1012008F196
:10428C00010800F0A9F8B8F1FF0FF0D1C146A079F0
:10429C0001F0DAFAB9F1FF0FC7B214D0032D0ED921
:1042AC00EA070CD4F2080136A35C5B00DBB2A35422
:1042BC00217A49453CBF43F00103A354F6B20135C2
:1042CC00EDB2552DD1D100F0DFFD272E0FD963783B
:1042DC0020781844A3781844E37818442379C0B2A2
:1042EC00C31A58425841BDE8F8830120FBE700206F
:1042FC00F9E7000010B50446FFF77EFF20B3E37921
:10430C000B2B1BD0153B012B1ED8A378DFED106AAD
:10431C0003F07F0207EE102AE27807EE902AB8EE3F
:10432C00C77AF8EEE77A1B06E7EE267AB2EE047A45
:10433C0087EE870A07D5B1EE400A04E0A37800EEB9
:10434C00103AB8EE400A10BD9FED020AFBE700BF21
:10435C00000080430000C07FFFF7CCBF10B50446BF
:10436C00FFF74AFFF0B1E3790B2B15D0153B012B6E
:10437C0018D82378DFED0D6A07EE103A637807EE54
:10438C00903AB8EE477AF8EEE77AE7EE267AB2EE94
:10439C00047A87EE870A10BD237800EE103AB8EE47
:1043AC00400AF8E79FED020AF5E700BF00008043E2
:1043BC000000C07FFFF7D2BF08B5024B1B685B6CD7
:1043CC00019308BD4802030008B5024B1B685B68EB
:1043DC00019308BD1802030008B5024B1B68DB688B
:1043EC00019308BD1802030008B5024B1B685B69FA
:1043FC00019308BD1802030008B5024B1B689B68AB
:10440C00019308BD2C02030008B5024B1B68DB6846
:10441C00019308BD2C02030008B5024B1B681B69F5
:10442C00019308BD2C02030008B5024B1B685B69A5
:10443C00019308BD2C02030008B5024B1B681B6AD4
:10444C00019308BD2C02030008B5024B1B685B6A84
:10445C00019308BD2C02030008B5024B1B681B6AB4
:10446C00019308BD2802030008B5024B1B685B6A68
:10447C00019308BD2802030008B5024B1B689B6A18
:10448C00019308BD2802030008B5024B1B68DB6AC8
:10449C00019308BD2802030008B5024B1B681B6B77
:1044AC00019308BD2802030008B5024B1B685B6B27
:1044BC00019308BD2802030008B5024B1B681B6C56
:1044CC00019308BD2802030008B5024B1B685B6909
:1044DC00019308BD6402030008B5024B1B689B687E
:1044EC00019308BD6802030008B5024B1B68DB682A
:1044FC00019308BD6802030008B5024B1B68DB6919
:10450C00019308BD3002030008B5024B1B681B6AFF
:10451C00019308BD3002030008B5024B1B681B68F1
:10452C00019308BD3C02030008B5024B1B68DB6815
:10453C00019308BD3C02030008B5024B1B681B69C4
:10454C00019308BD3C02030008B5024B1B685B6974
:10455C00019308BD3C02030008B5024B1B689B6924
:10456C00019308BD3C02030008B5024B1B68DB69D4
:10457C00019308BD3C02030008B5024B1B681B6A83
:10458C00019308BD3C02030008B5024B1B689B6AF3
:10459C00019308BD3C02030008B5024B1B681B6865
:1045AC00019308BD4C02030008B5024B1B685B6805
:1045BC00019308BD4C02030008B5024B1B681B6934
:1045CC00019308BD4C02030008B5024B1B685B69E4
:1045DC00019308BD4C02030008B5024B1B689B6994
:1045EC00019308BD4C02030008B5024B1B68DB6944
:1045FC00019308BD4C02030008B5024B1B681B6AF3
:10460C00019308BD4C02030008B5024B1B685B68A4
:10461C00019308BD2002030008B5024B1B685B69BF
:10462C00019308BD2002030008B5024B1B68DB6C2C
:10463C00019308BD2002030008B5024B1B685B6D9B
:10464C00019308BD2002030008B5034B1B68D3F887
:10465C008830019308BD00002002030008B5034B0D
:10466C001B68D3F89430019308BD000020020300AE
:10467C0008B5024B1B685B69019308BD440203003B
:10468C0008B5024B1B681B6A019308BD440203006A
:10469C0008B5024B1B68DB6B019308BD4402030099
:1046AC0008B5024B1B685B68019308BD4002030010
:1046BC0008B5024B1B689B68019308BD40020300C0
:1046CC0008B5024B1B68DB68019308BD4002030070
:1046DC0008B5024B1B681B69019308BD400203001F
:1046EC0008B5024B1B685B69019308BD40020300CF
:1046FC0008B5024B1B689B69019308BD400203007F
:10470C0008B5024B1B68DB69019308BD400203002E
:10471C0008B5024B1B681B6A019308BD40020300DD
:10472C0008B5024B1B681B6B019308BD40020300CC
:10473C0008B5024B1B685B6B019308BD400203007C
:10474C0008B5024B1B681B6C019308BD40020300AB
:10475C0008B5024B1B685B6C019308BD400203005B
:10476C0008B5024B1B681B68019308BD1C020300B3
:10477C0008B5024B1B685B68019308BD1C02030063
:10478C0008B5024B1B689B68019308BD1C02030013
:10479C0008B5024B1B685B6A019308BD1C02030041
:1047AC0008B5024B1B68DB6A019308BD1C020300B1
:1047BC0008B5024B1B681B6B019308BD1C02030060
:1047CC0008B5024B1B685B6C019308BD1C0203000F
:1047DC000021FFF721BF10B5836804460BB901F027
:1047EC0087F8C3689847A3681BB10322214620466B
:1047FC00984720461021BDE8104001F075B80B68B1
:10480C00036013B15A6801325A60704702480023A2
:10481C000360FFF7D1BD00BFA8E50320704700205F
:10482C00704710B51021044601F05EF8204610BD0B
:10483C0008B5FFF7F6FF08BD10B58368044613B141
:10484C00032201469847204610BD30B500224FF692
:10485C009C74026084808D888C800C6885800460D8
:10486C000A6030BD10B504460068FFF781FF204692
:10487C0010BD38B5C468F4B12378022B03D104F110
:10488C000C00FFF7EFFF656835B12846FFF7D4FF42
:10489C001021284601F028F8A56835B12846FFF705
:1048AC00CBFF1021284601F01FF820461421BDE84B
:1048BC00384001F019B838BD73B50E46044656F8A9
:1048CC00043B00930D4601A83146FFF798FF019A6F
:1048DC00009B6260236001A8002301930093FFF703
:1048EC00FDFB3046FFF7FAFB2846082100F0FCFFE1
:1048FC00204602B070BD13B50B460246D0E900014C
:10490C006C4684E8030093E8030082E8030094E813
:10491C00030083E8030002B010BD826810B50AB929
:10492C0000F0E6FFBDE81040C368184708B5006802
:10493C0000F11001FFF7F1FF08BD826810B50AB94C
:10494C0000F0D6FFBDE81040C368184708B50068F2
:10495C0000F11001FFF7F1FF08BD000038B500238E
:10496C000446036010200D46FFF78DFB28B1012390
:10497C00C0E90133024B0360C5602060204638BD9E
:10498C00D45A0D0038B5002383608B6804460D465D
:10499C002BB102229847EB68E360AB68A36020461A
:1049AC0038BD0000F0B589B004686846FFF74DFFCC
:1049BC004FF00203D4E84F2F002A03D1C4E8413F43
:1049CC000029F7D125D104F10C0569462846FFF7DB
:1049DC003CFFBFF35B8F01236370002004F10803DD
:1049EC00BFF35B8F53E8006F43E80002002AF9D154
:1049FC00BFF35B8F6EB1FFF717FE78B129463046D7
:104A0C00FFF78BFF3046FFF717FF1021304600F001
:104A1C006BFF6846FFF726FF09B0F0BD314602A8D0
:104A2C00FFF7B0FFE068B4F9105008B100F0A4FF34
:104A3C0006901020ADF81C50FFF725FB0546E8B199
:104A4C00002787601820FFF71EFB044688B101463B
:104A5C00876002A8FFF74FFF049BA268A360059B29
:104A6C00049206A9E268E36004F110000592FFF7D6
:104A7C00ECFE084BEB60084B2C60AB6006A8FFF714
:104A8C00F1FE02A8FFF7D8FE002229460348FFF7E3
:104A9C00D3FDB7E739490D00D14B0D00E3470D00AD
:104AAC002DE9F0478AB005469DF848900C4617460C
:104ABC009846FFF7DDFD07AE824638BB4FF62E73E6
:104ACC00059005A93046ADF81830FFF7BEFE14204E
:104ADC00FFF7D9FA044648B1022303700123C0E959
:104AEC0001AA437031460C30FFF7AFFE2846214631
:104AFC0040F8044BFFF732FF3046FFF7B3FE05A832
:104B0C00FFF7B0FE28460AB0BDE8F0870C234FF043
:104B1C00000A1420CDE908AA0793FFF7B4FA01465E
:104B2C0028B1C0E901AA80F800A080F801A004A86F
:104B3C000391FFF713FF224B08930820FFF7A3FA0A
:104B4C00824628B1039B40F8043B04A9FFF757FEAB
:104B5C0000965FFA89F3424639462046CDF824A0E8
:104B6C00FFF78EFDB8B9039B5B7803F0FF0293B996
:104B7C004FF69C7305A903A80592ADF81830FFF702
:104B8C0011FF05A8FFF76EFE05A80999FFF794FE23
:104B9C0006A8FFF7A3FA039B059304A906A8FFF741
:104BAC002EFE059B069A2B606A60002306A80693CE
:104BBC000593FFF793FA04A8FFF790FAA2E700BF5A
:104BCC00954C0D00022AF8B5054607D0032A18D0DB
:104BDC00012A01D10B6803600020F8BD18200E6873
:104BEC00FFF751FA044650B13146FFF7CBFE30695E
:104BFC00B6F9147008B100F0BFFE2061A7822C60DA
:104C0C00EAE70468002CE7D004F11000FFF72AFE55
:104C1C002046FFF711FE1821204600F065FEDBE769
:104C2C0038B5002383608B6804460D462BB10222F5
:104C3C009847EB68E360AB68A360204638BD022A56
:104C4C0070B5044607D0032A12D0012A01D10B6893
:104C5C000360002070BD14200E68FFF714FA05469F
:104C6C0020B13146FFF7DCFF337C2B742560F0E775
:104C7C000468002CEDD02046FFF7DEFD1421204601
:104C8C0000F032FEE5E70000F0B589B004460D46B1
:104C9C0001A81146FFF710FEA4B124B21DB128469D
:104CAC0000F06AFE054601A803A90395ADF8104073
:104CBC00FFF778FE03A8FFF7D5FD02A8FFF70EFA61
:104CCC0009B0F0BD019D0123D5E84F2F002A03D177
:104CDC00C5E8413F0029F7D1EFD12B73BFF35B8FB0
:104CEC006B702B1DBFF35B8F53E8006F43E80042E2
:104CFC00002AF9D1BFF35B8F002EDED02046FFF7E0
:104D0C0093FC074660B105F10C013046FFF715FE28
:104D1C003046FFF791FD1021304600F0E5FDCCE761
:104D2C00314603A8FFF77CFF2B7B8DF81C3010203D
:104D3C00FFF7A9F90546D0B187601420FFF7A3F956
:104D4C00044678B18760014603A8FFF7D4FD059BA4
:104D5C00A268A360069B0592E268E3609DF81C3094
:104D6C0006922374064BEB60064B2C60AB6003A8D9
:104D7C00FFF762FD002229460348FFF75DFCC7E7F9
:104D8C0059490D004B4C0D00E3470D0000224068C3
:104D9C001146FFF7BDBC002240681146FFF7C8BCA6
:104DAC0040680022FFF7BCBC4068002281F0010182
:104DBC00FFF7A6BC002340681A461946FFF798BCBB
:104DCC00002340681A461946FFF78ABC0022406847
:104DDC001146FFF77DBC002240681146FFF768BC06
:104DEC00406800220221FFF76BBC002340681A4682
:104DFC00FFF756BC024B03225A60024A1A607047F6
:104E0C00ACE50320F05A0D007047F8B50646154680
:104E1C000C468F18BC4206D0336814F8011B9B68F3
:104E2C0030469847F6E72846F8BD007C0022FFF78D
:104E3C0013BB007C0021FFF717BB007C0021FFF7A0
:104E4C001BBB007C0021FFF71FBB007C0021FFF780
:104E5C0023BB10B51421044600F046FD204610BDBE
:104E6C0010B54FF47A73044608460021C4E90113C7
:104E7C00034B236020741146FFF71EFB204610BD28
:104E8C002C5B0D00FFF7E0BAFFF7D6BA704710B5F0
:104E9C001821044600F028FD204610BDF0B5037D16
:104EAC00062B8DB00E4600F104074FF0000412D013
:104EBC0000F1080515F8011D0A22304600F047F9EB
:104ECC00AF42044419D0002CF4D02E21304600F00F
:104EDC002FF90444EEE72F236A4639460A208DF851
:104EEC000040FFF7F1FA684600F063FD33680246B4
:104EFC00DB68694630469847044620460DB0F0BD45
:104F0C0010B5054B0446112240F8043B002100F07B
:104F1C0006FD204610BD00BF545B0D000346074A3A
:104F2C0010B543F8042B01F1100251F8044B43F86F
:104F3C00044B9142F9D10A781A7010BD545B0D00E4
:104F4C0010B59DF8084044EA032343EA024242EAC2
:104F5C00016104234160037510BD13B5CB78009338
:104F6C008B784A780978FFF7EBFF02B010BD000090
:104F7C00014B024A1A607047B4E50320605B0D00D8
:104F8C00002340681A46FFF78BBB406800220221C1
:104F9C00FFF796BB002240681146FFF789BB002241
:104FAC0040681146FFF794BB002340681A46194627
:104FBC00FFF796BB002340681A461946FFF798BBCB
:104FCC0040680021FFF7BCBB40680021FFF7C0BB65
:104FDC004068002281F00101FFF792BB406800227B
:104FEC00FFF79EBB002240681146FFF7A1BB0022D1
:104FFC0040681146FFF78CBB2DE9F043002495B0B7
:10500C0016460D460746FFF77BFF214618220EA8D1
:10501C00009400F084FC4023CDE90C3421466B460F
:10502C000CAA3046FFF760FA0446002846D1024627
:10503C0001216868FFF74CFB022180462246686814
:10504C00FFF746FB009E81462146002E36D00029F4
:10505C0034D17368022B03D00A2B0BD0F669F4E71A
:10506C00B8F1000F04D0716938460431FFF775FFB1
:10507C004146F3E7B9F1000F01D14946EEE77469F7
:10508C00102201A800F04BFC06238DF8143001AD62
:10509C0004F108031834186859682A4603C2083307
:1050AC00A3421546F7D101A906A807ADFFF736FFB5
:1050BC000FCD3C1D0FC42B682370DEE70098FFF763
:1050CC000BFA384615B0BDE8F0830000024B034ADA
:1050DC001A6000225A607047B8E503206C5B0D0023
:1050EC00F8B506460D468F180024BD420CD0336827
:1050FC0015F8011B9B6830469847031E01DB1C44C6
:10510C00F3E7002C08BF1C462046F8BD13B5044637
:10511C00084659B1019100F04CFC23680199DB68F9
:10512C000246204602B0BDE81040184702B010BD40
:10513C0003689B68184738B50D210546FFF7F8FF43
:10514C000A2104462846FFF7F3FF204438BD30B54A
:10515C008BB000238DF82430012A98BF0A2209ACA9
:10516C000D46B1FBF2F101FB125303F0FF03092BC7
:10517C0094BF30333733DBB2AA4204F8013DEFD988
:10518C002146FFF7C3FF0BB030BD2DE9F04186B0CF
:10519C0000AF05460E46381D142114463B60FFF740
:1051AC00F7FA13280ED8391D2846FFF7AFFF04462F
:1051BC001EB12846FFF7BFFF044420461837BD46F2
:1051CC00BDE8F08100F1080323F00703E846ADEBDE
:1051DC00030D2246411C3B686846FFF7D9FA694625
:1051EC002846FFF793FF0446C546E1E7014B002232
:1051FC009A607047C0E5032010B50446084621703C
:10520C00FFF77AF900236360204610BD10B5044601
:10521C000068FFF7ADFA204610BD10B504460068D3
:10522C0008B1FFF7A5FA0023C4E90133236010BDD0
:10523C0038B504460D4600680131FFF7A1FA10B1EC
:10524C00C4E90005012038BD10B50368044623B13C
:10525C0043688B4201D3012010BD2046FFF7E8FFC5
:10526C000028F9D0A368002BF5D122681370F2E75F
:10527C0037B50D46114601920446FFF7E5FF019A3A
:10528C0028B92046FFF7C9FF204603B030BDA26005
:10529C002946206800F035FB2268A3680021D15410
:1052AC00F2E713B5044659B10846019100F081FBB1
:1052BC00019902462046FFF7DBFF204602B010BDE5
:1052CC00FFF7ABFFF9E710B504468AB00023C4E939
:1052DC000033A3602373084601A900F09BF901A9D0
:1052EC002046FFF7DEFF20460AB010BD054B022218
:1052FC001A60054B054A9A600020186098809871D6
:10530C00FFF782B9DCE50320D0E503200000FFFFA6
:10531C00024B1A68024B1A60704700BF1CE5032051
:10532C00E0E50320704741747047704708B5007C76
:10533C00FFF72AF920EAE07008BD08B5007CFFF7FA
:10534C00FBF820EAE07008BD08B5007CFFF704F913
:10535C0040EAE07008BD08B5007CFFF7F5F840EABC
:10536C00E07008BD007CFFF7FFB837B5457C0446FC
:10537C002DB1207C03B0BDE83040FFF7D5B8007CE0
:10538C000191FFF701F900280199F2DC284603B0DE
:10539C0030BD10B51421044600F0A6FA204610BD0D
:1053AC0010B54FF0000C0446084611464FF47A72C3
:1053BC00C4E901C2044A22600122207462741A46B4
:1053CC00FFF7AAF8204610BDC45B0D0013B50D4CB9
:1053DC002178BFF35B8F11F0010110D120460191B0
:1053EC00FEF757FE019950B1074B084A0848FFF7E2
:1053FC00D7FF2046FEF752FE064800F07CFA044820
:10540C0002B010BDE4E503206CE60320E8E50320C0
:10541C00F0E6032037530D00417470477047704716
:10542C0008B50021007CFFF7D7F840EAE07008BD12
:10543C0008B50121007CFFF7CFF840EAE07008BD09
:10544C0008B5007CFFF7C0F820EAE07008BD08B58D
:10545C00007CFFF7B1F820EAE07008BD13B50446F4
:10546C00007C0191FFF7B0F80028019901DC607C09
:10547C0020B1207CFFF7B8F820EAE07002B010BD34
:10548C00007CFFF7B9B810B51421044600F02CFAD3
:10549C00204610BD10B54FF47A730446084600211F
:1054AC00C4E90113044B2360012320746374114677
:1054BC00FFF772F8204610BDF45B0D00007C002253
:1054CC00FFF772B810B514220446002100F027FA39
:1054DC00204610BD10B50F4C88B003A8FFF7F2FFA3
:1054EC002178BFF35B8F11F001010FD120460191A0
:1054FC00FEF7CFFD019948B103AA0748FFF7CAFF91
:10550C002046FEF7CBFD054800F0F5F9024808B03F
:10551C0010BD00BF04E7032008E7032029540D0049
:10552C00002240681146FFF7D3B8002240681146AC
:10553C00FFF7EEB8002240681146FFF7F9B8406853
:10554C000022FFF7EDB84068002281F00101FFF75F
:10555C00D7B8002340681A461946FFF7C9B800238C
:10556C0040681A461946FFF7BBB80022406811463E
:10557C00FFF79EB8406800220221FFF7A1B8002374
:10558C0040681A46FFF78CB8024B04225A60024A54
:10559C001A6070471CE70320245C0D0010B504460C
:1055AC0000F007FA013823182046834206D9027806
:1055BC00197800F8011B03F80129F6E710BD70B546
:1055CC000C46911E2229054622D820466DB1B5FB0A
:1055DC00F2F602FB1655E9B2092D94BF3031573162
:1055EC00C9B200F8011B3546F0E7024623443021CE
:1055FC00934202D902F8011BFAE71A1A834238BF08
:10560C000022002383542046FFF7C8FF204670BDBC
:10561C000020FCE738B5031E0C4615460EDAB3F134
:10562C00004F4FF02D0214BF5842184601230A7048
:10563C002A461944FFF7C3FF204638BD0123F9E77A
:10564C00014B1860704700BF20E5032008B50B4BD9
:10565C0043B1FFF73FFF03681B699847002801DD42
:10566C00AFF30080064B43B1FFF7B0FE03681B6934
:10567C009847002801DDAFF3008008BD0000000052
:10568C000000000008B5FFF7E1FFFEF7ADFE014B8F
:10569C00186008BD38E703200548064A064908B5D6
:1056AC00121A00F02EF9054B054A1A6008BD00BF0E
:1056BC0000F4032004F40320805C0D0000F40320AC
:1056CC001E1C279A07B5002300931A466FF077012A
:1056DC00FEF7C4FF03B05DF804FB000007B5438878
:1056EC000A2B08D0502B0BD1094B1B684BB103B0C4
:1056FC005DF804EB1847FFF7E5FF03B05DF804FB1A
:10570C00002300931A466FF07701FEF7A7FFF4E72A
:10571C0028E7032010B512480021FFF751F8114B70
:10572C001A68114B9A42114B0CBF012200221A70BD
:10573C0001D0FFF7B1FFFEF747FE044600F0F8F882
:10574C000B4B13B12046AFF3008000210848FEF745
:10575C009FFFBDE8104007480021FEF775BF00BF52
:10576C004D560D0000F403201E1C279A24E703203D
:10577C0000000000E9560D00232813B502D90020C3
:10578C0002B010BDA0F10B03022B1AD8174C2178D4
:10579C00BFF35B8F11F001010BD120460191FEF795
:1057AC0078FC019928B11248FFF726FD2046FEF738
:1057BC0075FC0F4B1878FEF7A7FE0028DFD10120EF
:1057CC00DEE7012809D800F06BF80021007CFEF719
:1057DC006BFE80F00100C0B2D2E709380128EED888
:1057EC00FFF7F4FD007CFEF7C7FEF2E72CE7032081
:1057FC0030E70320232838B504460D460AD8FF2984
:10580C0008D0FFF7B9FF28B129462046BDE838403B
:10581C00FEF7F2BD38BD38B504460D46FEF7F4FD73
:10582C00FF2810D0062804D84D2323FA00F0C30714
:10583C0009D42046FFF7A0FF28B129462046BDE831
:10584C003840FEF7E9BD38BD10B50446FEF7DCFD67
:10585C00031FDBB2012B08D92046FFF78DFF20B1C7
:10586C002046BDE81040FEF7DFBD002010BD70479C
:10587C0038B500232025438014230446038085601B
:10588C0005610649284600F031F804496060284655
:10589C0000F02CF8E060204638BD00BF585C0D00CD
:1058AC0030B50E4D2978BFF35B8F11F0010487B032
:1058BC0011D12846FEF7EDFB68B101A8FFF7D8FF20
:1058CC0001AA21460648FFF7CBFA2846FEF7E6FB6D
:1058DC00044800F010F8024807B030BD3CE7032044
:1058EC0040E703207B580D00FEF7D1BBFEF7CDBB84
:1058FC0008B5FEF755FF002301461A46184600F07E
:10590C0061B80A44914200F1FF3300D1704710B5E1
:10591C0011F8014B03F8014F9142F9D110BD02442B
:10592C000346934200D1704703F8011BF9E70000CE
:10593C0038B50D4B1D68AB6B04467BB91820FEF7D0
:10594C000FFF0A4A0A4BA863C0E90023094B836086
:10595C000B23838101220023C0E90423AB6B0022BB
:10596C001C615A6138BD00BF20E503200E33CDAB5E
:10597C0034126DE6ECDE0500024B0146186800F0AF
:10598C0003B800BF20E5032037B5044608460D4692
:10599C0000F00FF8421C114620460192FEF708FF5A
:1059AC00044618B1019A2946FFF7ABFF204603B015
:1059BC0030BD034613F8012B002AFBD1181A01380D
:1059CC00704700002DE9F843DFF8B8800646D8F898
:1059DC0000001F460D46914600F056F8254B1C68FA
:1059EC0034B9254C1C60254B13B11B68C4F88830A6
:1059FC0063681F2B07DDD8F8000000F047F84FF064
:105A0C00FF30BDE8F8834EB3D4F8880088B91C4B3E
:105A1C0023B9D8F8000000F038F8F0E74FF48470A0
:105A2C00FEF79EFE0028F4D00023C0E94033C4F8F2
:105A3C008800636840F8239001229A4000EB8301B0
:105A4C00D0F800311343022EC0F80031C1F8807039
:105A5C0002BFD0F804311A43C0F804216368D8F8A7
:105A6C0000005A1C0233626044F8235000F00EF818
:105A7C000020C6E7E0E7032054E703200000000005
:105A8C006D470D0084E50320704770477047000098
:105A9C001D400D0059400D0081400D0085400D004A
:105AAC000000000054656D703A2025642C20487568
:105ABC006D3A2025640074656D700068756D00008A
:105ACC00000000000000000029480D002F480D00C8
:105ADC007F480D003D480D002B480D0000000000D4
:105AEC0000000000F74D0D00ED4D0D00E34D0D00D5
:105AFC00D94D0D00CD4D0D00C14D0D00CD4F0D00FC
:105B0C00D54F0D00B54D0D00AD4D0D00A34D0D0045
:105B1C00994D0D0005500D00000000000000000024
:105B2C00154E0D005F4E0D00374E0D00174E0D003B
:105B3C003F4E0D00474E0D004F4E0D00574E0D00C1
:105B4C000000000000000000A94E0D00994E0D0051
:105B5C009B4E0D0061707000000000000000000002
:105B6C008D4F0D00974F0D00A14F0D00AB4F0D0049
:105B7C00B54F0D00C14F0D00CD4F0D00D54F0D0091
:105B8C00DD4F0D00E94F0D00F14F0D00FB4F0D00E7
:105B9C0005500D0025592D256D2D25645425483AA9
:105BAC00254D3A2553257A0061736374696D650040
:105BBC00000000000000000031530D009F530D0049
:105BCC0077530D00ED500D0047530D0063530D003E
:105BDC0055530D0071530D0033530D0039530D0007
:105BEC0000000000000000002B540D0093540D0029
:105BFC0069540D00ED500D005B540D002D540D003B
:105C0C003D540D008D540D004D540D0025540D00C8
:105C1C0000000000000000008B550D0081550D00A8
:105C2C0077550D002D550D006B550D005F550D0072
:105C3C00CD4F0D00D54F0D0053550D004B550D009C
:105C4C0041550D0037550D0005500D0000000000AA
:105C5C00C1410D0019480D00014E0D007D4F0D0086
:105C6C00D9500D00F9510D00F9520D001D530D00C6
:045C7C0095550D002D
:045C80000000000020
:105C8400B45B0D0024E503200000000000000000C8
:105C94000000000000000000000000000000000000
:105CA40000000000000000000000000000000000F0
:105CB40000000000000000000000000000000000E0
:105CC40000000000000000000000000000000000D0
:105CD40000000000000000000000000000000000C0
:0C5CE4000000000000000000E5E70320C5
:105CF000FFFFFFFF00000102030405060708090A71
:105D00000B0C0D0E0F101112131415161718191A6B
:085D10001B1C1D1E1F202800B2
:045D18007856341273
:04000003D000401CCD
:00000001FF
